:0300000002016199
:0C016100787FE4F6D8FD7581140200F9E7
:0D01540048656C6C6F20576F726C64210061
:10012B0053877F75985053890F438920758BFD75C5
:0B013B008DFDC2ABD28ED2AFD2AC2241
:08016D008F993099FDC299221F
:0D014600007F087E017DF3DDFEDEFCDFFAA8
:010153002289
:1000F90078087C007D007BFF7A0179547E007F0DB2
:100109001200D312012BE4FDFC74082DF8E6FF124E
:10011900016D0DBD00010CED640D4C70EC12014632
:0201290080E470
:10000300E709F608DFFA8046E709F208DFFA803EDF
:1000130088828C83E709F0A3DFFA8032E309F608CC
:10002300DFFA8078E309F208DFFA807088828C8334
:10003300E309F0A3DFFA806489828A83E0A3F608E8
:10004300DFFA805889828A83E0A3F208DFFA804CC2
:1000530080D280FA80C680D4806980F28033801099
:1000630080A680EA809A80A880DA80E280CA803302
:1000730089828A83ECFAE493A3C8C582C8CCC5837A
:10008300CCF0A3C8C582C8CCC583CCDFE9DEE7804A
:100093000D89828A83E493A3F608DFF9ECFAA9F0C9
:1000A300EDFB2289828A83ECFAE0A3C8C582C8CC1F
:1000B300C583CCF0A3C8C582C8CCC583CCDFEADE38
:1000C300E880DB89828A83E493A3F208DFF980CC9A
:1000D30088F0EF60010E4E60C388F0ED2402B40493
:1000E3000050B9F582EB2402B4040050AF2323453A
:0600F3008223900053730C
:00000001FF
