:0300000002000EED
:0C000E00787FE4F6D8FD758108020055EB
:03000300010800F1
:1000C500D2AFD2A9758901758C5D758A3ED28C75C2
:0600D5009001C2A180FEB3
:03000B0002009A56
:04009A00C0E0C0D032
:10009E00758C1F758A000508E508B41015E590B437
:1000AE0080057590018006E59025E0F590B2A1756A
:0200BE00080038
:0500C000D0D0D0E032B9
:10001A000200C5E493A3F8E493A34003F68001F237
:10002A0008DFF48029E493A3F85407240CC8C333E7
:10003A00C4540F4420C8834004F456800146F6DFB6
:10004A00E4800B0102040810204080900003E47E43
:10005A00019360BCA3FF543F30E509541FFEE493AB
:10006A00A360010ECF54C025E060A840B8E493A372
:10007A00FAE493A3F8E493A3C8C582C8CAC583CA9D
:10008A00F0A3C8C582C8CAC583CADFE9DEE780BE55
:0100060000F9
:00000001FF
