:030000000200C338
:0C00C300787FE4F6D8FD75810702001E6E
:10002600EE7052EFB40A00504C900036F828287350
:1000360002005402005802005C02006002006402E2
:10004600006802006C02007002007402007875807D
:100056004022758079227580242275803022758031
:100066001922758012227580022275807822758089
:06007600802275801022BB
:1000030053877F75985053890F438920758BFD75EE
:0B0013008DFDC2ABD28ED2AFD2AC226A
:0800CF008F993099FDC29922BE
:0300230002007C5C
:10007C00C0E0C083C082C0D075D000C000C006C034
:01008C00076C
:10008D00309824AF99C298C3EF648094B04018D3D0
:10009D00EF648094B95010EF3395E0FEEF24D0FF5C
:0700AD00EE34FFFE120026F5
:0F00B400D007D006D000D0D0D082D083D0E03299
:05001E0012000380FE4A
:00000001FF
